:020000040800F2
:1000000008070020250200083D0400083504000808
:100010003904000813040008B504000800000000BB
:100020000000000000000000000000004104000883
:1000300017040008000000003F0400083D0200080B
:100040003F0200083F0200083F0200083F0200088C
:100050003F0200083F020008190400083F020008A0
:100060003F0200083F0200083F0200083F0200086C
:100070003F0200083F0200083F0200083F0200085C
:100080003F0200083F0200083F0200083F0200084C
:100090003F0200083F0200083F0200083F0200083C
:1000A0003F0200083F0200083F0200083F0200082C
:1000B0003F0200083F0200083F0200083F0200081C
:1000C0003F0200083F0200083F0200083F0200080C
:1000D0003F0200083F0200083F0200083F020008FC
:1000E0003F0200083F0200083F0200083F020008EC
:1000F0003F0200083F0200083F0200083F020008DC
:100100003F0200083F0200083F0200083F020008CB
:100110003F0200083F0200083F0200083F020008BB
:100120003F0200083F0200083F0200083F020008AB
:100130003F0200083F0200083F0200083F0200089B
:1001400000000000000000000000000000000000AF
:100150003F0200083F0200083F0200083F0200087B
:100160003F0200083F0200083F0200083F0200086B
:100170003F0200083F0200083F0200083F0200085B
:100180003F02000800F002F800F03CF80AA090E8F6
:10019000000C82448344AAF10107DA4501D100F042
:1001A00031F8AFF2090EBAE80F0013F0010F18BFD3
:1001B000FB1A43F001031847AC1C0000CC1C0000E4
:1001C000103A24BF78C878C1FAD8520724BF30C883
:1001D00030C144BF04680C60704700000023002455
:1001E00000250026103A28BF78C1FBD8520728BF47
:1001F00030C148BF0B6070471FB501F00FFE1FBD37
:1002000010B510BD00F09CF81146FFF7F5FF00F0A7
:1002100089FD00F0BAF803B4FFF7F2FF03BC00F069
:1002200081F800000948804709480047FEE7FEE7DB
:10023000FEE7FEE7FEE7FEE7FEE7FEE7FEE7FEE796
:1002400004480549054A064B70470000450400086C
:10025000850100080801002008070020080300208D
:10026000080300200EB5054614460E4613A000F004
:1002700047F8284600F044F816A000F041F8304650
:1002800000F03EF815A000F03BF800218DF80B10AF
:100290000A210DF10A008DF80A1008E094FBF1F232
:1002A00001FB124294FBF1F4303200F8012D002CD6
:1002B000F4DC00F025F800F018F800002A2A2A20C3
:1002C000617373657274696F6E206661696C6564D1
:1002D0003A2000002C2066696C6520002C206C6997
:1002E0006E65200070477047704710B5002000F021
:1002F0001FF8FFF785FFBDE81040012000F012B89D
:1003000010B5044602E0641C00F004F820780028D0
:10031000F9D110BD08B569468DF800000320ABBEC9
:1003200008BD000001491820ABBEFEE72600020010
:1003300010B500F039F8BDE8104000F02FB8704754
:10034000754600F049F8AE4605006946534620F070
:100350000700854618B020B5FFF772FFBDE82040C2
:100360004FF000064FF000074FF000084FF0000B71
:1003700021F00701AC46ACE8C009ACE8C009ACE824
:10038000C009ACE8C0098D46704710B50446AFF30C
:1003900000802046BDE81040FFF73DBF002801D097
:1003A000FFF7C0BF7047000010B5002102A000F0A9
:1003B00017F8012010BD0000534947414252543AFA
:1003C0002041626E6F726D616C207465726D696E32
:1003D0006174696F6E00000000487047A40000203F
:1003E00070B505460C460A2000E06D1CFFF792FF31
:1003F00035B128780028F8D102E0641CFFF78AFFA5
:1004000014B120780028F8D1BDE870400A20FFF729
:1004100081BF00BFFEE7704710B5012000F004FB6C
:1004200020B101200249087000F0EEFA10BD000072
:100430000800002000BFFEE700BFFEE770477047DE
:10044000704700001848006840F4700016490860C2
:100450001648006820F00100401C1449086000BFE5
:1004600012480068C0F340000028F9D00F484068E7
:1004700020F003000D49486000BF0C484068C0F3FD
:1004800081000028F9D10948006809490840074956
:1004900008600020486008634FF41F008860C803AC
:1004A000014980390860704788ED00E00010024083
:1004B000FFFFF2FE00BFFEE710B5322000F02EFA7B
:1004C000012204210A4800F04DFB01F06FF900F011
:1004D00085FD002000F0BEFD044640F62271032099
:1004E00001F052FC4FF4A261022001F04DFC10BD5E
:1004F000000801402DE9F04705460E461746022048
:1005000000F0FCFAC0F30030304400F0FF0900F0C6
:100510001BFB804619FB08F000F0FF0A002411E0E5
:1005200035F8140001F05EF9014604FB08F0395477
:1005300035F8140000F0F2FB014604FB08F0401C03
:100540003954641CB442EBDB5046BDE8F0870246E8
:1005500041EA0220704700000349496860F307112F
:10056000014A516070470000001002400349496889
:1005700060F30A21014A51607047000000100240F8
:100580000349496860F3CD21014A5160704700007A
:1005900000100240012807D10749496D21F03001C0
:1005A0003031054A516505E00349496D21F03001BC
:1005B000014A51657047000000100240052827D20B
:1005C000DFE800F0030A11181F00134A126861F3F4
:1005D0000002114B1A601CE00F4A126861F31042CE
:1005E0000D4B1A6015E00C4A126861F318620A4B51
:1005F0001A600EE0084A126A61F30002064B1A62A2
:1006000007E0054A526A61F30002034B5A6200E0B8
:1006100000BF00BF70470000001002402DE9F0410C
:10062000014600270022002590460023002400F008
:1006300051F9064626B1012E12D0022E43D112E006
:100640003948406DC0F3402038B13748006BC0F3E3
:10065000406010B13548086001E03548086035E079
:100660003348086032E030484068C0F300482E4804
:100670004068C0F383422C484068C0F341750DB90F
:100680000F2A03D12801401C024400E0921CB8F15B
:10069000000F03D127485043086013E02248406808
:1006A000C0F3404058B12048406DC0F30137B81C3A
:1006B000DFF87CC0BCFBF0F05043086002E01C484F
:1006C0005043086002E01A48086000BF00BF1648A7
:1006D0004068C0F303131848C45C0868E0404860F1
:1006E00011484068C0F302231448C45C4868E040E5
:1006F000C8600D484068C0F3C2231148C45C486814
:10070000E040886008484068C0F3007306484068CD
:10071000C0F3813040EA83030A48C45C8868B0FBB8
:10072000F4F00861BDE8F08100100240006CDC02CA
:1007300000127A0000093D002A1E00083A1E000837
:10074000421E00084A1E000810B501460020094B51
:1007500003EB1142126801F01F040123A3401A4069
:1007600001F01F040123A3409A4200D000E00120C1
:1007700010BD00000010024030B50024002500E04C
:10078000641C1120FFF7E0FF012802D0B4F5405FA0
:10079000F6D31120FFF7D8FF012801D0002500E093
:1007A0000125284630BD000010B501290DD10E4BA2
:1007B00003EB1042126800F01F040123A3401A4308
:1007C000094C04EB10431A600CE0074B03EB10429A
:1007D000126800F01F040123A3409A43024C04EB6B
:1007E00010431A6010BD00000010024010B568B937
:1007F0001C4B5B6823F480331A4C636023461B6BED
:1008000023F0007303F10073236317E0154B5B685B
:1008100023F4803303F58033124C6360012805D143
:1008200023465B6823F40033636007E00D4B5B688D
:1008300023F4003303F500330A4C6360094B5B6813
:1008400061F39543074C63600C09064B5B6864F3E6
:100850005E73044C636023465B6862F3DF7363601E
:1008600010BD0000001002401348006820F0010095
:10087000401C1149086000BF0F480068C0F34000E9
:100880000028F9D00C48406820F003000A4948606D
:1008900000BF09484068C0F381000028F9D106482C
:1008A0000068064908400449086000204860086361
:1008B0004FF41F008860704700100240FFFFF2FEF7
:1008C0000349496860F30101014A51607047000023
:1008D0000010024002484068C0F3810070470000E9
:1008E0000010024010B5042000F000FE0748006828
:1008F0000749B0FBF1F007490860084600684FF46B
:100900007A7148430449086010BD00000C000020C3
:1009100040420F000000002004000020002131E0D0
:1009200032280ADD194A126832235A434FF0E02375
:100930005A61A0F1320290B206E0144A12684243B2
:100940004FF0E0235A61002000224FF0E0239A612B
:100950001A46126942F001021A6100BF4FF0E0220C
:10096000116901F001021AB101F48032002AF5D0B8
:100970004FF0E022126922F001024FF0E0231A61E9
:1009800000229A610028CBD17047000004000020AB
:1009900001460020114A12684A434FF0E0235A6191
:1009A00000229A611A46126942F001021A6100BFE0
:1009B0004FF0E022106900F001021AB100F4803219
:1009C000002AF5D04FF0E022126922F001024FF028
:1009D000E0231A6100229A617047000000000020A5
:1009E00020F4805020F4407141F4807020F0010127
:1009F000481C20F4006070470021417241600121D1
:100A00000172017070470000064909680140814287
:100A100004D10449091D0860086002E00149091D6C
:100A20000860704710040140014600200022044B7A
:100A30001B6803EA01020AB1012000E000207047B0
:100A400014040140014600204868234A126882438A
:100A5000214B1A601A1D126882431B1D1A604A7AC4
:100A60000AB30A782AB91A1F126802431B1F1A60B8
:100A700006E0194A121D12680243174B1B1D1A602B
:100A8000154A083212688243134B08331A601A1D44
:100A9000126882431B1D1A600A7A2AB91A1F12684B
:100AA00002431B1F1A6016E00A7A012A07D10A4A7C
:100AB0000C3212680243084B0C331A600BE0064AF2
:100AC000083212680243044B08331A601A1D126878
:100AD00002431B1D1A60704700040140012905D123
:100AE000054A12680243044B1A6004E0024A126885
:100AF0008243014B1A6070470004014010B5044660
:100B0000402C00DA04E0302203A108A0FFF7AAFB82
:100B10000C4830F8140010BD2E2E5C7372635C61BB
:100B200064733133316D30782E6300006164647218
:100B3000657373203C204E554D5F524547495354D1
:100B4000455253002400002010B50220FFF7D6FFC5
:100B5000C0F301200149085C10BD0000261E0008FA
:100B6000416170470AB1016100E0416170474FF691
:100B7000FF71016000218171017104214171012126
:100B8000C171704710B500228B071C0F0F2303FAA9
:100B900004F28B1033B1012B13D0022B20D0032B86
:100BA0003CD12CE01F4B9B6893431E4CA360234613
:100BB0009B688C07240F00FA04F42343194CA360AC
:100BC0002DE0184BDB689343164CE3602346DB684B
:100BD0008C07240F00FA04F42343124CE3601EE058
:100BE000104B1B6993430F4C236123461B698C07F1
:100BF000240F00FA04F423430A4C23610FE0094B4D
:100C00005B699343074C636123465B698C07240F40
:100C100000FA04F42343034C636100E000BF00BF0B
:100C200010BD000000000140F0B50A461588ABB2C7
:100C30009579032D01D100241AE0957965B955798C
:100C400005F00F045579182D01D1036110E0557995
:100C5000282D0DD143610BE0957905F00805167933
:100C600006F004063543D67906F0030645EA060485
:100C7000DDB2A5B1002110E001258D401D405DB120
:100C800005688F000F26BE40B543056005688E00DD
:100C900004FA06F635430560491C0829ECD3FF2BFE
:100CA00015DD1B12002110E001258D401D405DB1B6
:100CB00045688F000F26BE40B543456045688E00ED
:100CC00004FA06F635434560491C0829ECD3F0BD0B
:100CD000F0B50C46104F07EB1062C0F30741C0F3AC
:100CE0000725C6B2C5F12007A7EB010C4FF0FF376F
:100CF00007FA0CF3C5F120077F1AFB40CB408B406D
:100D000017689F4317602CB106FA01FC176847EA81
:100D10000C071760F0BD0000000001400146C8B29A
:100D200070470000FFF7DEFD00F01AFF00F080FEC4
:100D300000F026FE00F072FE00F0DEFF00F09EFEE6
:100D400000F026FE00F078FF00F04CFEFFF7B4FB49
:100D500006E0642000F0F6FD10B1024800F086F8CD
:100D6000F7E70000100000202DE9F0470B4614467D
:100D70004FF0000C00BF2C4A1268C2F302211D463E
:100D800026460A46C2F10709B9F1040F02D94FF00D
:100D9000040901E0C2F10709C84602F10409B9F1EA
:100DA000070F02D24FF0000901E0A2F103094F46FC
:100DB0004FF0010909FA08F9A9F1010909EA050941
:100DC00009FA07F94FF0010A0AFA07FAAAF1010A2B
:100DD0000AEA060A49EA0A09CC460146624600299F
:100DE00004DB15072E0E114D6E5407E015072F0E6C
:100DF0000D4D0C3501F00F06361FAF5500BF0146F3
:100E000000290DDB00BF00BF01F01F050122AA4031
:100E10004D09AD0005F1E025C5F8002100BF00BF78
:100E200000BFBDE8F08700000CED00E000E400E04A
:100E300000BF00F00702064B19684FF6FF03194088
:100E4000044B0B4343EA0221014B196000BF70477A
:100E50000CED00E00000FA050349096860F3082181
:100E6000014A116070470000007000402DE9FC410C
:100E70000546002001900090FFF766FE064600221E
:100E800010213548FFF76EFE002405E0002000F039
:100E9000DFF90DF80400641CB442F7DB9DF8011083
:100EA0009DF80000FFF753FB28800027002406E090
:100EB00001A9085D00F0CCF90DF80400641CB442EF
:100EC000F6DB684600F076F96860002405E0002053
:100ED00000F0BEF90DF80400641CB442F7DB68466C
:100EE00000F068F9A860002405E0002000F0B0F9E7
:100EF0000DF80400641CB442F7DB684600F05AF9B0
:100F0000E860002405E0002000F0A2F90DF80400DC
:100F1000641CB442F7DB684600F04CF928610024F9
:100F200005E0002000F094F90DF80400641CB442C0
:100F3000F7DB9DF801109DF80000FFF708FB6880C3
:100F4000012210210448FFF70DFE17B10120BDE872
:100F5000FC810020FBE70000000801403EB504468C
:100F6000402C00DA04E0732210A115A0FFF77AF9F3
:100F70000020029001904FF4204040EAC4100090FD
:100F800002AA01216846FFF7B5FA05462A4601A9DB
:100F900002A800F01DF9002000F05CF80E4921F8CD
:100FA0001400084630F814003EBD00002E2E5C737D
:100FB00072635C6164733133316D30782E6300008D
:100FC00061646472657373203C204E554D5F5245D9
:100FD00047495354455253002400002000201C4927
:100FE00008804FF4A06048804FF4A260888040F6EB
:100FF0000E70C8804FF4E0400881002048814FF413
:10100000C06088810020C881088248828882C882A6
:101010004FF400400883002048838883C8830884F5
:101020004FF40040488400208884C884088548859F
:101030004FF4004088850020C88508864886888649
:101040004FF40040C88600200887A1F87C00704754
:101050002400002071B583B0BDF80C00B0F5204F1E
:1010600000D005E04FF4B4722EA133A0FFF7FAF8D8
:10107000BDF80C00B0F5C04F00D005E040F2691299
:1010800028A133A0FFF7EEF8BDF80C0040F255514F
:10109000884200D005E04FF4B57222A132A0FFF7DC
:1010A000E1F8BDF80C0040F25561884200D005E03F
:1010B00040F26B121BA132A0FFF7D4F8BDF80C0070
:1010C000112800D005E04FF4B67216A132A0FFF748
:1010D000C9F800200290019002AA012103A8FFF79D
:1010E00009FA0546002210213148FFF73BFD002494
:1010F00006E002A9085D00F0ABF801A90855641CE0
:10110000AC42F6DB012210212948FFF72BFD9DF8A8
:1011100005109DF80400FFF71AFA0646304604B0A1
:1011200070BD00002E2E5C7372635C61647331339A
:10113000316D30782E6300004F50434F44455F526D
:1011400052454720213D206F70636F6465000000A9
:101150004F50434F44455F5752454720213D206F34
:1011600070636F64650000004F50434F44455F4C0F
:101170004F434B20213D206F70636F64650000007A
:101180004F50434F44455F554E4C4F434B20213DFC
:10119000206F70636F6465004F50434F44455F524A
:1011A0004553455420213D206F70636F64650000F6
:1011B0000008014010B5014608780406487802048A
:1011C0008878030244EA02001843001210BD0000B0
:1011D0002DE9F04105460E4617460DB106B104E073
:1011E000F9220CA114A0FFF73DF8002210211748A6
:1011F000FFF7B8FC002404E0285D00F029F8305522
:10120000641CBC42F8DB012210211048FFF7AAFC45
:10121000BDE8F0812E2E5C7372635C6174333266BC
:10122000343033615F3430375F776B5F636F6E6686
:1012300069672E63000000006461746154782026A1
:1012400026206461746152780000000000080140AB
:1012500070B5044600BF02210A4800F030F80028AB
:10126000F9D02146074800F028F800BF01210548C1
:1012700000F025F80028F9D0024800F01AF8C5B2AD
:10128000284670BD0030014000210170417081701E
:10129000C1700171417181710121C1717047026892
:1012A00061F3861202607047426861F38202426015
:1012B00070470146C86880B27047C16070470246F7
:1012C000002093680B4003B900E001207047C26919
:1012D00022F40062C2610A7862B9026822F4004214
:1012E0000260026822F480420260026822F4806296
:1012F000026036E00A78012A0ED1026822F4004228
:101300000260026822F480420260026822F4806275
:1013100002F58062026024E00A78022A0ED1026897
:1013200022F4004202F500420260026822F4804288
:101330000260026822F48062026012E00A78032AE6
:101340000FD1026822F4004202F5004202600268F6
:1013500022F4804202F580420260026822F4806238
:101360000260CB79026863F3492202604A78012A5D
:1013700009D1CA79012A06D1026822F4807202F5E5
:101380008072026003E0026822F4807202604B788F
:10139000026863F3820202608A78072A0BDD4268E2
:1013A00022F4807202F5807242608A78036862F3E8
:1013B000C503036008E0426822F4807242608B78C3
:1013C000026863F3C5020260CB78026863F3C71258
:1013D00002600B79026863F3CB2202604B790268EA
:1013E00063F3410202608B79026863F300020260DA
:1013F000704700002DE9F047002600240025002753
:10140000A046A146FFF766FA8246BAF1000F06D061
:10141000BAF1010F15D0BAF1020F46D115E02D48EF
:10142000406DC0F3402040B12A48006BC0F34060DB
:1014300018B129482949086002E02948274908606D
:1014400037E027482549086033E022484068C0F368
:10145000004720484068C0F383441E484068C0F3FA
:1014600041750DB90F2C03D12801401C044400E044
:10147000A41C27B91B4860431849086014E01548AC
:101480004068C0F3404058B11248406DC0F3013687
:10149000B01C1349B1FBF0F060431049086003E051
:1014A0000F4860430D49086003E00D480B49086090
:1014B00000BF00BF07484068C0F303180A4810F88F
:1014C00008900648006820FA09F004490860BDE861
:1014D000F087000000100240006CDC020C000020CD
:1014E00000127A0000093D00521E0008042808D1AD
:1014F0004FF0E021096941F004014FF0E022116151
:1015000007E04FF0E021096921F004014FF0E022EB
:1015100011617047C1628262436923F001035B1C61
:10152000436170470B4633B1022B06D0042B06D023
:10153000062B08D105E0426306E0826304E0C26343
:1015400002E0026400E000BF00BF7047026861F380
:10155000092202607047026861F306120260704758
:10156000026861F300020260704710B50B4633B1A8
:10157000022B09D0042B0CD0062B14D10EE0846969
:1015800062F3C30484610FE0846962F3CB24846155
:101590000AE0C46962F3C304C46105E0C46962F38C
:1015A000CB24C46100E000BF00BF10BD2DE9F041B5
:1015B00000250026002701F108035C1C92F801C0F9
:1015C0000CFA03FC1FFA8CF592F802C00CFA04FC2A
:1015D0001FFA8CF6D0F804C04FF0010808FA04F89E
:1015E0002CEA080CC0F804C0D0F804C04CEA060C81
:1015F000C0F804C0D0F804C04FF0010808FA03F89E
:101600002CEA080CC0F804C0D0F804C04CEA050C61
:10161000C0F804C00F4637B1022F0DD0042F14D0EC
:10162000062F24D11AE092F80080D0F818C068F391
:10163000061CC0F818C01BE092F80080D0F818C053
:1016400068F30E3CC0F818C012E092F80080D0F8A1
:101650001CC068F3061CC0F81CC009E092F80080AA
:10166000D0F81CC068F30E3CC0F81CC000E000BFFE
:1016700000BF4FF0010C0CEB41034FF0030C0CEBDF
:10168000410492F803C00CFA03FC1FFA8CF592F89F
:1016900004C00CFA04FC1FFA8CF64FF0010808FA9B
:1016A00004F8D0F820C02CEA080CC0F820C0D0F80C
:1016B00020C04CEA060CC0F820C04FF0010C0CFA18
:1016C00003FCD0F8208028EA0C08C0F82080D0F86D
:1016D00020C04CEA050CC0F820C04B004FF0020CB3
:1016E0000CEB410492F805C04FEA41080CFA08FCE3
:1016F0001FFA8CF592F806C04FF0020808EB41087B
:101700000CFA08FC1FFA8CF64FF0010808FA04F8EE
:10171000D0F820C02CEA080CC0F820C0D0F820C0B7
:101720004CEA060CC0F820C04FF0010808FA03F894
:10173000D0F820C02CEA080CC0F820C0D0F820C097
:101740004CEA050CC0F820C0BDE8F08110B50B468E
:1017500033B1022B09D0042B0CD0062B14D10EE090
:10176000846962F3820484610FE0846962F38A24ED
:1017700084610AE0C46962F38204C46105E0C4695B
:1017800062F38A24C46100E000BF00BF10BD02689C
:1017900061F3C71202607047426861F3061242604B
:1017A0007047826861F3C7128260704710B50022EB
:1017B00004210B48FFF7D6F90220FFF7AFF801220A
:1017C00004210748FFF7CEF90520FFF7E1F8FFF7FE
:1017D00005FC4FF4A261022000F0D6FA10BD000013
:1017E000000801400146080A7047C26861F34D32A3
:1017F000C260704741B9426922F480724261426915
:1018000022F40072426127E001290AD1426922F4E0
:10181000807202F580724261426922F40072426174
:101820001AE002290AD1426922F4807242614269B7
:1018300022F4007202F5007242610DE003290BD11F
:10184000426922F4807202F580724261426922F498
:10185000007202F500724261704700002DE9F0430A
:1018600085B004460F46904699466846FEF7D6FE78
:101870001848844208D01848844205D0174884424A
:1018800002D01748844201D1029E00E0039E06EB7D
:1018900086004000B0FBF7F50A20B5FBF0F100FB35
:1018A0001150052803D20A20B5FBF0F503E00A2009
:1018B000B5FBF0F0451CA06865F30F00A060E06880
:1018C00068F30C30E060206969F30D30206105B0E9
:1018D000BDE8F08300380140006001400064014031
:1018E0000068014041B9C26822F40072C260C26857
:1018F00022F48062C2601AE001290AD1C26822F48F
:101900000072C260C26822F4806202F58062C26026
:101910000DE002290BD1C26822F4007202F50072B8
:10192000C260C26822F4806202F58062C2607047C1
:10193000C26861F38202C2607047C26861F3C30289
:10194000C260704770B5054642F6E06005FB00F4E2
:1019500000200A49087001210846FFF7BFF800BFC0
:10196000641E0648007808B9002CF9D1002003490C
:1019700008700CB1012070BD0020FCE708000020B9
:1019800010B501210148FFF7A3F910BD0203103083
:1019900000B585B003A8FFF7EAF800208DF8120023
:1019A0000120039004208DF8110003A90C48FFF7D3
:1019B0003BF900210846FFF7E5F86846FFF71CF8F9
:1019C00001208DF8090000208DF800000120019011
:1019D0008DF808006846FFF735F805B000BD000037
:1019E000000801401CB56846FFF7C1F804210A4809
:1019F000FFF7B6F802208DF8070000208DF80400EC
:101A000010208DF80600042000908DF8050069462E
:101A10000148FFF709F91CBD0008014010B503207B
:101A2000FFF706FA002211460620FFF79DF910BDC8
:101A300010B501214FF4C010FEF7B6FE01210E488B
:101A4000FEF7B2FE01210C48801CFEF7ADFE01211D
:101A50000948C01CFEF7A8FE012107480A30FEF71E
:101A6000A3FE012104480C30FEF79EFE01214FF435
:101A7000E010FEF799FE10BD020018001FB502A885
:101A8000FFF775F86846FFF7FFFB02208DF80F009F
:101A900000208DF80C0008208DF80E002020029008
:101AA00004208DF80D0002A92B48FFF7BDF8022095
:101AB0008DF80F0000208DF80C008DF80E004020EE
:101AC000029004208DF80D0002A92348FFF7ACF81E
:101AD00002208DF80F0000208DF80C0008208DF8F2
:101AE0000E008020029004208DF80D0002A91A48F3
:101AF000FFF79AF802208DF80F0000208DF80C00F7
:101B000010208DF80E00029004208DF80D0002A91F
:101B10001148FFF789F800208DF8000001208DF8AA
:101B2000010000208DF804008DF8030003208DF8DB
:101B3000020000208DF8050001208DF8060069469E
:101B40000648FFF7C4FB01210448FFF7ADFB012164
:101B50000248FFF7A4FB1FBD000801400030014010
:101B600010B5FEF781FE01214FF01C10FEF71CFEA0
:101B70000120FFF771F92E48FEF7E6FD48B9012173
:101B80000320FEF71BFD00BF2948FEF7DDFD0028FE
:101B9000FAD00020FFF760F900214FF01C10FEF78B
:101BA00003FE01210420FEF709FD00BF2148FEF7D6
:101BB000CBFD0128FAD101210846FEF7FFFC00BF4A
:101BC000FEF7DAFD0028FBD001210020FEF7F6FC2D
:101BD00000BF0120FEF7B8FD0128FAD101221D2126
:101BE0001046FEF703FE01210220FEF7E7FC00BFCE
:101BF0001920FEF7A9FD0128FAD10020FEF7ACFC60
:101C00000420FEF7BDFC0420FEF7B0FC0120FEF727
:101C1000C1FC0220FEF754FE00BFFEF75BFE022867
:101C2000FBD10020FEF7B6FCFFF7E4FB10BD00007F
:101C300001002000010024001FB502A8FEF797FF55
:101C40000220029008208DF80E0000208DF80C0074
:101C500004208DF80D0002208DF80F0002A9254800
:101C6000FEF7E2FF00221D218807FFF753FC002149
:101C70004FF08040FFF76FFC00214FF08040FFF7EE
:101C800065FC00214FF08040FFF781FD00214FF0FF
:101C90008040FFF786FD00214FF08040FFF77CFD7C
:101CA00006208DF8000001208DF8050000208DF839
:101CB00006008DF803008DF804008DF801008DF802
:101CC00002006A4602214807FFF770FC0E2202213B
:101CD0004807FFF727FC002202214807FFF745FCD1
:101CE000002202214807FFF731FD01218807FFF795
:101CF00037FC1FBD000801401CB56846FEF737FFE2
:101D000002208DF8070000208DF8040008208DF8CF
:101D100006008001009004208DF8050069461848EF
:101D2000FEF782FF02208DF8070000208DF80400E6
:101D30008DF806004FF48060009004208DF80500B7
:101D400069460F48FEF770FF00231A464FF4E13151
:101D50000C48FFF783FD01210A48FFF7EEFD012142
:101D60000848FFF7E5FD00210648FFF7BBFD00210D
:101D70000448FFF73FFD01210248FFF736FD1CBD77
:101D8000000801400038014070B586B004460D4699
:101D9000402C00DA04E09C2214A119A0FEF762FA9C
:101DA000022C03D12846FEF71BFE054600200490B6
:101DB0000590029003904FF4C04040EAC410ADF883
:101DC0000400ADF8065004AA022101A8FEF792FB18
:101DD0000646324602A904A8FFF7FAF90E4820F891
:101DE00014502046FFF7BAF806B070BD2E2E5C7373
:101DF00072635C6164733133316D30782E6300003F
:101E000061646472657373203C204E554D5F52458A
:101E10004749535445525300240000204FF040706E
:101E2000E1EE100A70470203040400000000000005
:101E30000000010203040607080900000000010277
:101E40000304000000000102030402040608020C5F
:101E50000810000000000000000001020304060753
:101E600008090000841E0008000000201000000087
:101E7000C0010008941E000810000020F8060000B1
:101E8000DC0100080000000000000000000000006D
:041E900000127A00C2
:040000050800018569
:00000001FF
